{
  "contractName": "CargoDapp",
  "abi": [
    {
      "constant": true,
      "inputs": [
        {
          "internalType": "uint256",
          "name": "",
          "type": "uint256"
        }
      ],
      "name": "cargos",
      "outputs": [
        {
          "internalType": "string",
          "name": "num",
          "type": "string"
        },
        {
          "internalType": "string",
          "name": "Date",
          "type": "string"
        },
        {
          "internalType": "string",
          "name": "Mode",
          "type": "string"
        },
        {
          "internalType": "string",
          "name": "Product",
          "type": "string"
        },
        {
          "internalType": "uint256",
          "name": "Weight",
          "type": "uint256"
        },
        {
          "internalType": "uint256",
          "name": "Cost",
          "type": "uint256"
        }
      ],
      "payable": false,
      "stateMutability": "view",
      "type": "function"
    },
    {
      "constant": true,
      "inputs": [
        {
          "internalType": "uint256",
          "name": "",
          "type": "uint256"
        }
      ],
      "name": "receivers",
      "outputs": [
        {
          "internalType": "string",
          "name": "RName",
          "type": "string"
        },
        {
          "internalType": "string",
          "name": "RAddress",
          "type": "string"
        },
        {
          "internalType": "string",
          "name": "RDistrict",
          "type": "string"
        },
        {
          "internalType": "uint256",
          "name": "RMobile",
          "type": "uint256"
        },
        {
          "internalType": "string",
          "name": "REmail",
          "type": "string"
        },
        {
          "internalType": "string",
          "name": "RExactPlace",
          "type": "string"
        }
      ],
      "payable": false,
      "stateMutability": "view",
      "type": "function"
    },
    {
      "constant": true,
      "inputs": [
        {
          "internalType": "uint256",
          "name": "",
          "type": "uint256"
        }
      ],
      "name": "senders",
      "outputs": [
        {
          "internalType": "string",
          "name": "SName",
          "type": "string"
        },
        {
          "internalType": "string",
          "name": "SAddress",
          "type": "string"
        },
        {
          "internalType": "string",
          "name": "SDistrict",
          "type": "string"
        },
        {
          "internalType": "uint256",
          "name": "SMobile",
          "type": "uint256"
        },
        {
          "internalType": "string",
          "name": "SEmail",
          "type": "string"
        },
        {
          "internalType": "string",
          "name": "SExactPlace",
          "type": "string"
        }
      ],
      "payable": false,
      "stateMutability": "view",
      "type": "function"
    },
    {
      "constant": false,
      "inputs": [
        {
          "internalType": "uint256",
          "name": "_id",
          "type": "uint256"
        },
        {
          "internalType": "string",
          "name": "_num",
          "type": "string"
        },
        {
          "internalType": "string",
          "name": "_Date",
          "type": "string"
        },
        {
          "internalType": "string",
          "name": "_Mode",
          "type": "string"
        },
        {
          "internalType": "string",
          "name": "_Product",
          "type": "string"
        },
        {
          "internalType": "uint256",
          "name": "_Weight",
          "type": "uint256"
        },
        {
          "internalType": "uint256",
          "name": "_Cost",
          "type": "uint256"
        }
      ],
      "name": "addCargo",
      "outputs": [],
      "payable": false,
      "stateMutability": "nonpayable",
      "type": "function"
    },
    {
      "constant": false,
      "inputs": [
        {
          "internalType": "uint256",
          "name": "_id",
          "type": "uint256"
        },
        {
          "internalType": "string",
          "name": "_SName",
          "type": "string"
        },
        {
          "internalType": "string",
          "name": "_SAddress",
          "type": "string"
        },
        {
          "internalType": "string",
          "name": "_SDistrict",
          "type": "string"
        },
        {
          "internalType": "uint256",
          "name": "_SMobile",
          "type": "uint256"
        },
        {
          "internalType": "string",
          "name": "_SEmail",
          "type": "string"
        },
        {
          "internalType": "string",
          "name": "_SExactPlace",
          "type": "string"
        }
      ],
      "name": "addSender",
      "outputs": [],
      "payable": false,
      "stateMutability": "nonpayable",
      "type": "function"
    },
    {
      "constant": false,
      "inputs": [
        {
          "internalType": "uint256",
          "name": "_id",
          "type": "uint256"
        },
        {
          "internalType": "string",
          "name": "_RName",
          "type": "string"
        },
        {
          "internalType": "string",
          "name": "_RAddress",
          "type": "string"
        },
        {
          "internalType": "string",
          "name": "_RDistrict",
          "type": "string"
        },
        {
          "internalType": "uint256",
          "name": "_RMobile",
          "type": "uint256"
        },
        {
          "internalType": "string",
          "name": "_REmail",
          "type": "string"
        },
        {
          "internalType": "string",
          "name": "_RExactPlace",
          "type": "string"
        }
      ],
      "name": "addReceiver",
      "outputs": [],
      "payable": false,
      "stateMutability": "nonpayable",
      "type": "function"
    }
  ],
  "bytecode": "0x608060405234801561001057600080fd5b50611c8f806100206000396000f3fe608060405234801561001057600080fd5b50600436106100625760003560e01c80630c5c92d41461006757806338eff58814610305578063851a6c28146106305780638b47ff4c146108295780639977c78a14610b54578063bfd772fc14610db2575b600080fd5b610303600480360360e081101561007d57600080fd5b8101908080359060200190929190803590602001906401000000008111156100a457600080fd5b8201836020820111156100b657600080fd5b803590602001918460018302840111640100000000831117156100d857600080fd5b91908080601f016020809104026020016040519081016040528093929190818152602001838380828437600081840152601f19601f8201169050808301925050505050505091929192908035906020019064010000000081111561013b57600080fd5b82018360208201111561014d57600080fd5b8035906020019184600183028401116401000000008311171561016f57600080fd5b91908080601f016020809104026020016040519081016040528093929190818152602001838380828437600081840152601f19601f820116905080830192505050505050509192919290803590602001906401000000008111156101d257600080fd5b8201836020820111156101e457600080fd5b8035906020019184600183028401116401000000008311171561020657600080fd5b91908080601f016020809104026020016040519081016040528093929190818152602001838380828437600081840152601f19601f8201169050808301925050505050505091929192908035906020019064010000000081111561026957600080fd5b82018360208201111561027b57600080fd5b8035906020019184600183028401116401000000008311171561029d57600080fd5b91908080601f016020809104026020016040519081016040528093929190818152602001838380828437600081840152601f19601f8201169050808301925050505050505091929192908035906020019092919080359060200190929190505050611010565b005b61062e600480360360e081101561031b57600080fd5b81019080803590602001909291908035906020019064010000000081111561034257600080fd5b82018360208201111561035457600080fd5b8035906020019184600183028401116401000000008311171561037657600080fd5b91908080601f016020809104026020016040519081016040528093929190818152602001838380828437600081840152601f19601f820116905080830192505050505050509192919290803590602001906401000000008111156103d957600080fd5b8201836020820111156103eb57600080fd5b8035906020019184600183028401116401000000008311171561040d57600080fd5b91908080601f016020809104026020016040519081016040528093929190818152602001838380828437600081840152601f19601f8201169050808301925050505050505091929192908035906020019064010000000081111561047057600080fd5b82018360208201111561048257600080fd5b803590602001918460018302840111640100000000831117156104a457600080fd5b91908080601f016020809104026020016040519081016040528093929190818152602001838380828437600081840152601f19601f820116905080830192505050505050509192919290803590602001909291908035906020019064010000000081111561051157600080fd5b82018360208201111561052357600080fd5b8035906020019184600183028401116401000000008311171561054557600080fd5b91908080601f016020809104026020016040519081016040528093929190818152602001838380828437600081840152601f19601f820116905080830192505050505050509192919290803590602001906401000000008111156105a857600080fd5b8201836020820111156105ba57600080fd5b803590602001918460018302840111640100000000831117156105dc57600080fd5b91908080601f016020809104026020016040519081016040528093929190818152602001838380828437600081840152601f19601f8201169050808301925050505050505091929192905050506110e3565b005b61065c6004803603602081101561064657600080fd5b81019080803590602001909291905050506111ca565b604051808060200180602001806020018060200187815260200186815260200185810385528b818151815260200191508051906020019080838360005b838110156106b4578082015181840152602081019050610699565b50505050905090810190601f1680156106e15780820380516001836020036101000a031916815260200191505b5085810384528a818151815260200191508051906020019080838360005b8381101561071a5780820151818401526020810190506106ff565b50505050905090810190601f1680156107475780820380516001836020036101000a031916815260200191505b50858103835289818151815260200191508051906020019080838360005b83811015610780578082015181840152602081019050610765565b50505050905090810190601f1680156107ad5780820380516001836020036101000a031916815260200191505b50858103825288818151815260200191508051906020019080838360005b838110156107e65780820151818401526020810190506107cb565b50505050905090810190601f1680156108135780820380516001836020036101000a031916815260200191505b509a505050505050505050505060405180910390f35b610b52600480360360e081101561083f57600080fd5b81019080803590602001909291908035906020019064010000000081111561086657600080fd5b82018360208201111561087857600080fd5b8035906020019184600183028401116401000000008311171561089a57600080fd5b91908080601f016020809104026020016040519081016040528093929190818152602001838380828437600081840152601f19601f820116905080830192505050505050509192919290803590602001906401000000008111156108fd57600080fd5b82018360208201111561090f57600080fd5b8035906020019184600183028401116401000000008311171561093157600080fd5b91908080601f016020809104026020016040519081016040528093929190818152602001838380828437600081840152601f19601f8201169050808301925050505050505091929192908035906020019064010000000081111561099457600080fd5b8201836020820111156109a657600080fd5b803590602001918460018302840111640100000000831117156109c857600080fd5b91908080601f016020809104026020016040519081016040528093929190818152602001838380828437600081840152601f19601f8201169050808301925050505050505091929192908035906020019092919080359060200190640100000000811115610a3557600080fd5b820183602082011115610a4757600080fd5b80359060200191846001830284011164010000000083111715610a6957600080fd5b91908080601f016020809104026020016040519081016040528093929190818152602001838380828437600081840152601f19601f82011690508083019250505050505050919291929080359060200190640100000000811115610acc57600080fd5b820183602082011115610ade57600080fd5b80359060200191846001830284011164010000000083111715610b0057600080fd5b91908080601f016020809104026020016040519081016040528093929190818152602001838380828437600081840152601f19601f820116905080830192505050505050509192919290505050611466565b005b610b8060048036036020811015610b6a57600080fd5b810190808035906020019092919050505061154d565b60405180806020018060200180602001878152602001806020018060200186810386528c818151815260200191508051906020019080838360005b83811015610bd6578082015181840152602081019050610bbb565b50505050905090810190601f168015610c035780820380516001836020036101000a031916815260200191505b5086810385528b818151815260200191508051906020019080838360005b83811015610c3c578082015181840152602081019050610c21565b50505050905090810190601f168015610c695780820380516001836020036101000a031916815260200191505b5086810384528a818151815260200191508051906020019080838360005b83811015610ca2578082015181840152602081019050610c87565b50505050905090810190601f168015610ccf5780820380516001836020036101000a031916815260200191505b50868103835288818151815260200191508051906020019080838360005b83811015610d08578082015181840152602081019050610ced565b50505050905090810190601f168015610d355780820380516001836020036101000a031916815260200191505b50868103825287818151815260200191508051906020019080838360005b83811015610d6e578082015181840152602081019050610d53565b50505050905090810190601f168015610d9b5780820380516001836020036101000a031916815260200191505b509b50505050505050505050505060405180910390f35b610dde60048036036020811015610dc857600080fd5b8101908080359060200190929190505050611881565b60405180806020018060200180602001878152602001806020018060200186810386528c818151815260200191508051906020019080838360005b83811015610e34578082015181840152602081019050610e19565b50505050905090810190601f168015610e615780820380516001836020036101000a031916815260200191505b5086810385528b818151815260200191508051906020019080838360005b83811015610e9a578082015181840152602081019050610e7f565b50505050905090810190601f168015610ec75780820380516001836020036101000a031916815260200191505b5086810384528a818151815260200191508051906020019080838360005b83811015610f00578082015181840152602081019050610ee5565b50505050905090810190601f168015610f2d5780820380516001836020036101000a031916815260200191505b50868103835288818151815260200191508051906020019080838360005b83811015610f66578082015181840152602081019050610f4b565b50505050905090810190601f168015610f935780820380516001836020036101000a031916815260200191505b50868103825287818151815260200191508051906020019080838360005b83811015610fcc578082015181840152602081019050610fb1565b50505050905090810190601f168015610ff95780820380516001836020036101000a031916815260200191505b509b50505050505050505050505060405180910390f35b6040518060c0016040528087815260200186815260200185815260200184815260200183815260200182815250600080898152602001908152602001600020600082015181600001908051906020019061106b929190611bb5565b506020820151816001019080519060200190611088929190611bb5565b5060408201518160020190805190602001906110a5929190611bb5565b5060608201518160030190805190602001906110c2929190611bb5565b506080820151816004015560a0820151816005015590505050505050505050565b6040518060c001604052808781526020018681526020018581526020018481526020018381526020018281525060016000898152602001908152602001600020600082015181600001908051906020019061113f929190611bb5565b50602082015181600101908051906020019061115c929190611bb5565b506040820151816002019080519060200190611179929190611bb5565b506060820151816003015560808201518160040190805190602001906111a0929190611bb5565b5060a08201518160050190805190602001906111bd929190611bb5565b5090505050505050505050565b6000602052806000526040600020600091509050806000018054600181600116156101000203166002900480601f0160208091040260200160405190810160405280929190818152602001828054600181600116156101000203166002900480156112765780601f1061124b57610100808354040283529160200191611276565b820191906000526020600020905b81548152906001019060200180831161125957829003601f168201915b505050505090806001018054600181600116156101000203166002900480601f0160208091040260200160405190810160405280929190818152602001828054600181600116156101000203166002900480156113145780601f106112e957610100808354040283529160200191611314565b820191906000526020600020905b8154815290600101906020018083116112f757829003601f168201915b505050505090806002018054600181600116156101000203166002900480601f0160208091040260200160405190810160405280929190818152602001828054600181600116156101000203166002900480156113b25780601f10611387576101008083540402835291602001916113b2565b820191906000526020600020905b81548152906001019060200180831161139557829003601f168201915b505050505090806003018054600181600116156101000203166002900480601f0160208091040260200160405190810160405280929190818152602001828054600181600116156101000203166002900480156114505780601f1061142557610100808354040283529160200191611450565b820191906000526020600020905b81548152906001019060200180831161143357829003601f168201915b5050505050908060040154908060050154905086565b6040518060c00160405280878152602001868152602001858152602001848152602001838152602001828152506002600089815260200190815260200160002060008201518160000190805190602001906114c2929190611bb5565b5060208201518160010190805190602001906114df929190611bb5565b5060408201518160020190805190602001906114fc929190611bb5565b50606082015181600301556080820151816004019080519060200190611523929190611bb5565b5060a0820151816005019080519060200190611540929190611bb5565b5090505050505050505050565b6001602052806000526040600020600091509050806000018054600181600116156101000203166002900480601f0160208091040260200160405190810160405280929190818152602001828054600181600116156101000203166002900480156115f95780601f106115ce576101008083540402835291602001916115f9565b820191906000526020600020905b8154815290600101906020018083116115dc57829003601f168201915b505050505090806001018054600181600116156101000203166002900480601f0160208091040260200160405190810160405280929190818152602001828054600181600116156101000203166002900480156116975780601f1061166c57610100808354040283529160200191611697565b820191906000526020600020905b81548152906001019060200180831161167a57829003601f168201915b505050505090806002018054600181600116156101000203166002900480601f0160208091040260200160405190810160405280929190818152602001828054600181600116156101000203166002900480156117355780601f1061170a57610100808354040283529160200191611735565b820191906000526020600020905b81548152906001019060200180831161171857829003601f168201915b505050505090806003015490806004018054600181600116156101000203166002900480601f0160208091040260200160405190810160405280929190818152602001828054600181600116156101000203166002900480156117d95780601f106117ae576101008083540402835291602001916117d9565b820191906000526020600020905b8154815290600101906020018083116117bc57829003601f168201915b505050505090806005018054600181600116156101000203166002900480601f0160208091040260200160405190810160405280929190818152602001828054600181600116156101000203166002900480156118775780601f1061184c57610100808354040283529160200191611877565b820191906000526020600020905b81548152906001019060200180831161185a57829003601f168201915b5050505050905086565b6002602052806000526040600020600091509050806000018054600181600116156101000203166002900480601f01602080910402602001604051908101604052809291908181526020018280546001816001161561010002031660029004801561192d5780601f106119025761010080835404028352916020019161192d565b820191906000526020600020905b81548152906001019060200180831161191057829003601f168201915b505050505090806001018054600181600116156101000203166002900480601f0160208091040260200160405190810160405280929190818152602001828054600181600116156101000203166002900480156119cb5780601f106119a0576101008083540402835291602001916119cb565b820191906000526020600020905b8154815290600101906020018083116119ae57829003601f168201915b505050505090806002018054600181600116156101000203166002900480601f016020809104026020016040519081016040528092919081815260200182805460018160011615610100020316600290048015611a695780601f10611a3e57610100808354040283529160200191611a69565b820191906000526020600020905b815481529060010190602001808311611a4c57829003601f168201915b505050505090806003015490806004018054600181600116156101000203166002900480601f016020809104026020016040519081016040528092919081815260200182805460018160011615610100020316600290048015611b0d5780601f10611ae257610100808354040283529160200191611b0d565b820191906000526020600020905b815481529060010190602001808311611af057829003601f168201915b505050505090806005018054600181600116156101000203166002900480601f016020809104026020016040519081016040528092919081815260200182805460018160011615610100020316600290048015611bab5780601f10611b8057610100808354040283529160200191611bab565b820191906000526020600020905b815481529060010190602001808311611b8e57829003601f168201915b5050505050905086565b828054600181600116156101000203166002900490600052602060002090601f016020900481019282601f10611bf657805160ff1916838001178555611c24565b82800160010185558215611c24579182015b82811115611c23578251825591602001919060010190611c08565b5b509050611c319190611c35565b5090565b611c5791905b80821115611c53576000816000905550600101611c3b565b5090565b9056fea265627a7a72315820af0f4b9cc3346fd81a55f5d8330cb3858c07a1e61ef00d1c84ecd280cd91d7f664736f6c63430005100032",
  "source": "pragma solidity ^0.5.0;\r\ncontract CargoDapp {\r\n \t//**STRUCTURES**\r\n \t\r\n \tstruct Cargo{\r\n        string num;\r\n\t\tstring Date;\r\n\t\tstring Mode;\r\n\t\tstring Product;\r\n\t\tuint256 Weight;\r\n\t\tuint256 Cost;\r\n \t}\r\n \tstruct Sender{\r\n\t\tstring SName;\r\n\t\tstring SAddress;\r\n\t\tstring SDistrict;\r\n\t\tuint256 SMobile;\r\n\t\tstring SEmail;\r\n\t\tstring SExactPlace;\r\n\t}\r\n\tstruct Receiver{\r\n\t    string RName;\r\n\t\tstring RAddress;\r\n\t\tstring RDistrict;\r\n\t\tuint256 RMobile;\r\n\t\tstring REmail;\r\n\t\tstring RExactPlace;\r\n\t}\r\n\r\n\r\n \tmapping(uint => Cargo) public cargos;\r\n\tmapping(uint => Sender) public senders;\r\n\tmapping(uint => Receiver) public receivers;\r\n\t\r\n\t//**function for cargo --**\r\n\tfunction addCargo(uint _id,string memory _num,string memory _Date,string memory _Mode,string memory _Product,uint256 _Weight,uint256 _Cost) public {\r\n\t    cargos[_id] = Cargo(_num, _Date, _Mode,_Product, _Weight, _Cost);\r\n\t}\r\n\t//**function for Sender--**\r\n\tfunction addSender(uint _id,string memory _SName,string memory _SAddress,string memory _SDistrict,uint256 _SMobile,string memory _SEmail,string memory _SExactPlace) public {\r\n\t\tsenders[_id]= Sender(_SName, _SAddress, _SDistrict,_SMobile, _SEmail, _SExactPlace);\r\n\t}\r\n\t//**function for Receiver--**\r\n\tfunction addReceiver(uint _id,string memory _RName,string memory _RAddress,string memory _RDistrict,uint256 _RMobile,string memory _REmail,string memory _RExactPlace) public {\r\n\t\treceivers[_id]= Receiver(_RName, _RAddress, _RDistrict,_RMobile, _REmail, _RExactPlace);\r\n\t}\r\n\t\r\n}\r\n//------END------\r\n\r\n",
  "sourcePath": "C:\\CargoDapp\\src\\contracts\\CargoDapp.sol",
  "compiler": {
    "name": "solc",
    "version": "0.5.16+commit.9c3226ce.Emscripten.clang"
  },
  "schemaVersion": "3.0.23",
  "updatedAt": "2020-09-23T05:22:41.745Z",
  "networkType": "ethereum",
  "devdoc": {
    "methods": {}
  },
  "userdoc": {
    "methods": {}
  }
}